{
  "contractName": "TrxChain",
  "abi": [
    {
      "constant": true,
      "inputs": [],
      "name": "pool_balance",
      "outputs": [
        {
          "name": "",
          "type": "uint256"
        }
      ],
      "payable": false,
      "stateMutability": "view",
      "type": "function"
    },
    {
      "constant": true,
      "inputs": [],
      "name": "divisor",
      "outputs": [
        {
          "name": "",
          "type": "uint8"
        }
      ],
      "payable": false,
      "stateMutability": "view",
      "type": "function"
    },
    {
      "constant": true,
      "inputs": [
        {
          "name": "",
          "type": "uint256"
        }
      ],
      "name": "pool_bonuses",
      "outputs": [
        {
          "name": "",
          "type": "uint8"
        }
      ],
      "payable": false,
      "stateMutability": "view",
      "type": "function"
    },
    {
      "constant": true,
      "inputs": [
        {
          "name": "",
          "type": "uint256"
        },
        {
          "name": "",
          "type": "address"
        }
      ],
      "name": "pool_users_refs_deposits_sum",
      "outputs": [
        {
          "name": "",
          "type": "uint256"
        }
      ],
      "payable": false,
      "stateMutability": "view",
      "type": "function"
    },
    {
      "constant": true,
      "inputs": [],
      "name": "owner",
      "outputs": [
        {
          "name": "",
          "type": "address"
        }
      ],
      "payable": false,
      "stateMutability": "view",
      "type": "function"
    },
    {
      "constant": true,
      "inputs": [],
      "name": "pool_cycle",
      "outputs": [
        {
          "name": "",
          "type": "uint256"
        }
      ],
      "payable": false,
      "stateMutability": "view",
      "type": "function"
    },
    {
      "constant": true,
      "inputs": [],
      "name": "total_withdraw",
      "outputs": [
        {
          "name": "",
          "type": "uint256"
        }
      ],
      "payable": false,
      "stateMutability": "view",
      "type": "function"
    },
    {
      "constant": true,
      "inputs": [],
      "name": "pool_last_draw",
      "outputs": [
        {
          "name": "",
          "type": "uint40"
        }
      ],
      "payable": false,
      "stateMutability": "view",
      "type": "function"
    },
    {
      "constant": true,
      "inputs": [
        {
          "name": "",
          "type": "address"
        }
      ],
      "name": "users",
      "outputs": [
        {
          "name": "cycle",
          "type": "uint256"
        },
        {
          "name": "upline",
          "type": "address"
        },
        {
          "name": "referrals",
          "type": "uint256"
        },
        {
          "name": "payouts",
          "type": "uint256"
        },
        {
          "name": "direct_bonus",
          "type": "uint256"
        },
        {
          "name": "pool_bonus",
          "type": "uint256"
        },
        {
          "name": "match_bonus",
          "type": "uint256"
        },
        {
          "name": "deposit_amount",
          "type": "uint256"
        },
        {
          "name": "deposit_payouts",
          "type": "uint256"
        },
        {
          "name": "deposit_time",
          "type": "uint40"
        },
        {
          "name": "total_deposits",
          "type": "uint256"
        },
        {
          "name": "total_payouts",
          "type": "uint256"
        },
        {
          "name": "total_structure",
          "type": "uint256"
        },
        {
          "name": "total_team_business",
          "type": "uint256"
        }
      ],
      "payable": false,
      "stateMutability": "view",
      "type": "function"
    },
    {
      "constant": true,
      "inputs": [],
      "name": "daily_returns",
      "outputs": [
        {
          "name": "",
          "type": "uint8"
        }
      ],
      "payable": false,
      "stateMutability": "view",
      "type": "function"
    },
    {
      "constant": true,
      "inputs": [
        {
          "name": "",
          "type": "uint256"
        }
      ],
      "name": "cycles",
      "outputs": [
        {
          "name": "",
          "type": "uint256"
        }
      ],
      "payable": false,
      "stateMutability": "view",
      "type": "function"
    },
    {
      "constant": true,
      "inputs": [
        {
          "name": "",
          "type": "uint256"
        }
      ],
      "name": "ref_bonuses",
      "outputs": [
        {
          "name": "",
          "type": "uint8"
        }
      ],
      "payable": false,
      "stateMutability": "view",
      "type": "function"
    },
    {
      "constant": true,
      "inputs": [
        {
          "name": "",
          "type": "uint8"
        }
      ],
      "name": "pool_top",
      "outputs": [
        {
          "name": "",
          "type": "address"
        }
      ],
      "payable": false,
      "stateMutability": "view",
      "type": "function"
    },
    {
      "constant": true,
      "inputs": [],
      "name": "etherchain_fund",
      "outputs": [
        {
          "name": "",
          "type": "address"
        }
      ],
      "payable": false,
      "stateMutability": "view",
      "type": "function"
    },
    {
      "constant": true,
      "inputs": [],
      "name": "total_deposited",
      "outputs": [
        {
          "name": "",
          "type": "uint256"
        }
      ],
      "payable": false,
      "stateMutability": "view",
      "type": "function"
    },
    {
      "constant": true,
      "inputs": [],
      "name": "total_users",
      "outputs": [
        {
          "name": "",
          "type": "uint256"
        }
      ],
      "payable": false,
      "stateMutability": "view",
      "type": "function"
    },
    {
      "constant": true,
      "inputs": [],
      "name": "admin_fee",
      "outputs": [
        {
          "name": "",
          "type": "address"
        }
      ],
      "payable": false,
      "stateMutability": "view",
      "type": "function"
    },
    {
      "inputs": [
        {
          "name": "_owner",
          "type": "address"
        }
      ],
      "payable": false,
      "stateMutability": "nonpayable",
      "type": "constructor"
    },
    {
      "payable": true,
      "stateMutability": "payable",
      "type": "fallback"
    },
    {
      "anonymous": false,
      "inputs": [
        {
          "indexed": true,
          "name": "addr",
          "type": "address"
        },
        {
          "indexed": true,
          "name": "upline",
          "type": "address"
        }
      ],
      "name": "Upline",
      "type": "event"
    },
    {
      "anonymous": false,
      "inputs": [
        {
          "indexed": true,
          "name": "addr",
          "type": "address"
        },
        {
          "indexed": false,
          "name": "amount",
          "type": "uint256"
        }
      ],
      "name": "NewDeposit",
      "type": "event"
    },
    {
      "anonymous": false,
      "inputs": [
        {
          "indexed": true,
          "name": "addr",
          "type": "address"
        },
        {
          "indexed": true,
          "name": "from",
          "type": "address"
        },
        {
          "indexed": false,
          "name": "amount",
          "type": "uint256"
        }
      ],
      "name": "DirectPayout",
      "type": "event"
    },
    {
      "anonymous": false,
      "inputs": [
        {
          "indexed": true,
          "name": "addr",
          "type": "address"
        },
        {
          "indexed": true,
          "name": "from",
          "type": "address"
        },
        {
          "indexed": false,
          "name": "amount",
          "type": "uint256"
        }
      ],
      "name": "MatchPayout",
      "type": "event"
    },
    {
      "anonymous": false,
      "inputs": [
        {
          "indexed": true,
          "name": "addr",
          "type": "address"
        },
        {
          "indexed": false,
          "name": "amount",
          "type": "uint256"
        }
      ],
      "name": "PoolPayout",
      "type": "event"
    },
    {
      "anonymous": false,
      "inputs": [
        {
          "indexed": true,
          "name": "addr",
          "type": "address"
        },
        {
          "indexed": false,
          "name": "amount",
          "type": "uint256"
        }
      ],
      "name": "Withdraw",
      "type": "event"
    },
    {
      "anonymous": false,
      "inputs": [
        {
          "indexed": true,
          "name": "addr",
          "type": "address"
        },
        {
          "indexed": false,
          "name": "amount",
          "type": "uint256"
        }
      ],
      "name": "LimitReached",
      "type": "event"
    },
    {
      "constant": false,
      "inputs": [
        {
          "name": "_upline",
          "type": "address"
        }
      ],
      "name": "deposit",
      "outputs": [],
      "payable": true,
      "stateMutability": "payable",
      "type": "function"
    },
    {
      "constant": false,
      "inputs": [],
      "name": "withdraw",
      "outputs": [],
      "payable": false,
      "stateMutability": "nonpayable",
      "type": "function"
    },
    {
      "constant": true,
      "inputs": [
        {
          "name": "_amount",
          "type": "uint256"
        }
      ],
      "name": "maxPayoutOf",
      "outputs": [
        {
          "name": "",
          "type": "uint256"
        }
      ],
      "payable": false,
      "stateMutability": "pure",
      "type": "function"
    },
    {
      "constant": true,
      "inputs": [
        {
          "name": "_addr",
          "type": "address"
        }
      ],
      "name": "payoutOf",
      "outputs": [
        {
          "name": "payout",
          "type": "uint256"
        },
        {
          "name": "max_payout",
          "type": "uint256"
        }
      ],
      "payable": false,
      "stateMutability": "view",
      "type": "function"
    },
    {
      "constant": true,
      "inputs": [
        {
          "name": "_addr",
          "type": "address"
        }
      ],
      "name": "userInfo",
      "outputs": [
        {
          "name": "upline",
          "type": "address"
        },
        {
          "name": "deposit_time",
          "type": "uint40"
        },
        {
          "name": "deposit_amount",
          "type": "uint256"
        },
        {
          "name": "payouts",
          "type": "uint256"
        },
        {
          "name": "direct_bonus",
          "type": "uint256"
        },
        {
          "name": "pool_bonus",
          "type": "uint256"
        },
        {
          "name": "match_bonus",
          "type": "uint256"
        }
      ],
      "payable": false,
      "stateMutability": "view",
      "type": "function"
    },
    {
      "constant": true,
      "inputs": [
        {
          "name": "_addr",
          "type": "address"
        }
      ],
      "name": "userInfoTotals",
      "outputs": [
        {
          "name": "referrals",
          "type": "uint256"
        },
        {
          "name": "total_deposits",
          "type": "uint256"
        },
        {
          "name": "total_payouts",
          "type": "uint256"
        },
        {
          "name": "total_structure",
          "type": "uint256"
        }
      ],
      "payable": false,
      "stateMutability": "view",
      "type": "function"
    },
    {
      "constant": true,
      "inputs": [],
      "name": "contractInfo",
      "outputs": [
        {
          "name": "_total_users",
          "type": "uint256"
        },
        {
          "name": "_total_deposited",
          "type": "uint256"
        },
        {
          "name": "_total_withdraw",
          "type": "uint256"
        },
        {
          "name": "_pool_last_draw",
          "type": "uint40"
        },
        {
          "name": "_pool_balance",
          "type": "uint256"
        },
        {
          "name": "_pool_lider",
          "type": "uint256"
        }
      ],
      "payable": false,
      "stateMutability": "view",
      "type": "function"
    },
    {
      "constant": true,
      "inputs": [],
      "name": "poolTopInfo",
      "outputs": [
        {
          "name": "addrs",
          "type": "address[5]"
        },
        {
          "name": "deps",
          "type": "uint256[5]"
        }
      ],
      "payable": false,
      "stateMutability": "view",
      "type": "function"
    }
  ],
  "bytecode": "0x60806040526085600660006101000a81548160ff021916908360ff1602179055506064600660016101000a81548160ff021916908360ff16021790555042600860006101000a81548164ffffffffff021916908364ffffffffff1602179055506001600d553480156200007157600080fd5b50d380156200007f57600080fd5b50d280156200008d57600080fd5b50604051602080620046bc83398101806040526020811015620000af57600080fd5b8101908080519060200190929190505050806000806101000a81548173ffffffffffffffffffffffffffffffffffffffff021916908373ffffffffffffffffffffffffffffffffffffffff16021790555073dae41a6de97e6446954d0f6053ed2008776d6a1b600160006101000a81548173ffffffffffffffffffffffffffffffffffffffff021916908373ffffffffffffffffffffffffffffffffffffffff1602179055507331aa4bede2ebd80346acd8a01b99b809438eaa5b600260006101000a81548173ffffffffffffffffffffffffffffffffffffffff021916908373ffffffffffffffffffffffffffffffffffffffff16021790555060056028908060018154018082558091505090600182039060005260206000209060209182820401919006909192909190916101000a81548160ff021916908360ff1602179055505060056014908060018154018082558091505090600182039060005260206000209060209182820401919006909192909190916101000a81548160ff021916908360ff160217905550506005600a908060018154018082558091505090600182039060005260206000209060209182820401919006909192909190916101000a81548160ff021916908360ff160217905550506005600a908060018154018082558091505090600182039060005260206000209060209182820401919006909192909190916101000a81548160ff021916908360ff160217905550506005600a908060018154018082558091505090600182039060005260206000209060209182820401919006909192909190916101000a81548160ff021916908360ff1602179055505060056008908060018154018082558091505090600182039060005260206000209060209182820401919006909192909190916101000a81548160ff021916908360ff1602179055505060056008908060018154018082558091505090600182039060005260206000209060209182820401919006909192909190916101000a81548160ff021916908360ff1602179055505060056008908060018154018082558091505090600182039060005260206000209060209182820401919006909192909190916101000a81548160ff021916908360ff1602179055505060056008908060018154018082558091505090600182039060005260206000209060209182820401919006909192909190916101000a81548160ff021916908360ff1602179055505060056008908060018154018082558091505090600182039060005260206000209060209182820401919006909192909190916101000a81548160ff021916908360ff16021790555050600580908060018154018082558091505090600182039060005260206000209060209182820401919006909192909190916101000a81548160ff021916908360ff16021790555050600580908060018154018082558091505090600182039060005260206000209060209182820401919006909192909190916101000a81548160ff021916908360ff16021790555050600580908060018154018082558091505090600182039060005260206000209060209182820401919006909192909190916101000a81548160ff021916908360ff16021790555050600580908060018154018082558091505090600182039060005260206000209060209182820401919006909192909190916101000a81548160ff021916908360ff16021790555050600580908060018154018082558091505090600182039060005260206000209060209182820401919006909192909190916101000a81548160ff021916908360ff1602179055505060076028908060018154018082558091505090600182039060005260206000209060209182820401919006909192909190916101000a81548160ff021916908360ff1602179055505060076014908060018154018082558091505090600182039060005260206000209060209182820401919006909192909190916101000a81548160ff021916908360ff160217905550506007600f908060018154018082558091505090600182039060005260206000209060209182820401919006909192909190916101000a81548160ff021916908360ff160217905550506007600f908060018154018082558091505090600182039060005260206000209060209182820401919006909192909190916101000a81548160ff021916908360ff160217905550506007600a908060018154018082558091505090600182039060005260206000209060209182820401919006909192909190916101000a81548160ff021916908360ff16021790555050600464174876e800908060018154018082558091505090600182039060005260206000200160009091929091909150555060046445d964b8009080600181540180825580915050906001820390600052602060002001600090919290919091505550600464d18c2e2800908060018154018082558091505090600182039060005260206000200160009091929091909150555060046501d1a94a2000908060018154018082558091505090600182039060005260206000200160009091929091909150555050613e8d806200082f6000396000f3fe608060405260043610610183576000357c0100000000000000000000000000000000000000000000000000000000900480639a8318f4116100ee578063b7d9f0d2116100a7578063de560cca11610081578063de560cca14610b4e578063e7cc62bd14610b93578063f340fa0114610bd8578063fee3f7f914610c1c57610183565b8063b7d9f0d2146109d6578063c864130f14610a45578063d8745b6814610add57610183565b80639a8318f4146106da578063a19834161461071f578063a87430ba14610772578063a9c3ac5314610886578063ac2a0ed314610922578063afbce3b91461096d57610183565b80636da61d1e116101405780636da61d1e1461041857806374a88b8b1461049e57806374b95b2d146105275780638959af3c146105bb5780638da5cb5b14610624578063970d106f1461069557610183565b806315c43aaf1461018f578063192ef492146102055780631959a0021461024a5780631f2dc5ef1461032d5780633ccfd60b146103785780636d5f6f11146103a9575b61018d3334610c8d565b005b34801561019b57600080fd5b50d380156101a857600080fd5b50d280156101b557600080fd5b506101be6117a8565b604051808781526020018681526020018581526020018464ffffffffff1664ffffffffff168152602001838152602001828152602001965050505050505060405180910390f35b34801561021157600080fd5b50d3801561021e57600080fd5b50d2801561022b57600080fd5b5061023461186e565b6040518082815260200191505060405180910390f35b34801561025657600080fd5b50d3801561026357600080fd5b50d2801561027057600080fd5b506102b36004803603602081101561028757600080fd5b81019080803573ffffffffffffffffffffffffffffffffffffffff169060200190929190505050611874565b604051808873ffffffffffffffffffffffffffffffffffffffff1673ffffffffffffffffffffffffffffffffffffffff1681526020018764ffffffffff1664ffffffffff16815260200186815260200185815260200184815260200183815260200182815260200197505050505050505060405180910390f35b34801561033957600080fd5b50d3801561034657600080fd5b50d2801561035357600080fd5b5061035c611a9e565b604051808260ff1660ff16815260200191505060405180910390f35b34801561038457600080fd5b50d3801561039157600080fd5b50d2801561039e57600080fd5b506103a7611ab1565b005b3480156103b557600080fd5b50d380156103c257600080fd5b50d280156103cf57600080fd5b506103fc600480360360208110156103e657600080fd5b8101908080359060200190929190505050612631565b604051808260ff1660ff16815260200191505060405180910390f35b34801561042457600080fd5b50d3801561043157600080fd5b50d2801561043e57600080fd5b506104816004803603602081101561045557600080fd5b81019080803573ffffffffffffffffffffffffffffffffffffffff169060200190929190505050612664565b604051808381526020018281526020019250505060405180910390f35b3480156104aa57600080fd5b50d380156104b757600080fd5b50d280156104c457600080fd5b50610511600480360360408110156104db57600080fd5b8101908080359060200190929190803573ffffffffffffffffffffffffffffffffffffffff16906020019092919050505061294c565b6040518082815260200191505060405180910390f35b34801561053357600080fd5b50d3801561054057600080fd5b50d2801561054d57600080fd5b506105906004803603602081101561056457600080fd5b81019080803573ffffffffffffffffffffffffffffffffffffffff169060200190929190505050612971565b6040518085815260200184815260200183815260200182815260200194505050505060405180910390f35b3480156105c757600080fd5b50d380156105d457600080fd5b50d280156105e157600080fd5b5061060e600480360360208110156105f857600080fd5b8101908080359060200190929190505050612a92565b6040518082815260200191505060405180910390f35b34801561063057600080fd5b50d3801561063d57600080fd5b50d2801561064a57600080fd5b50610653612aab565b604051808273ffffffffffffffffffffffffffffffffffffffff1673ffffffffffffffffffffffffffffffffffffffff16815260200191505060405180910390f35b3480156106a157600080fd5b50d380156106ae57600080fd5b50d280156106bb57600080fd5b506106c4612ad0565b6040518082815260200191505060405180910390f35b3480156106e657600080fd5b50d380156106f357600080fd5b50d2801561070057600080fd5b50610709612ad6565b6040518082815260200191505060405180910390f35b34801561072b57600080fd5b50d3801561073857600080fd5b50d2801561074557600080fd5b5061074e612adc565b604051808264ffffffffff1664ffffffffff16815260200191505060405180910390f35b34801561077e57600080fd5b50d3801561078b57600080fd5b50d2801561079857600080fd5b506107db600480360360208110156107af57600080fd5b81019080803573ffffffffffffffffffffffffffffffffffffffff169060200190929190505050612af3565b604051808f81526020018e73ffffffffffffffffffffffffffffffffffffffff1673ffffffffffffffffffffffffffffffffffffffff1681526020018d81526020018c81526020018b81526020018a81526020018981526020018881526020018781526020018664ffffffffff1664ffffffffff1681526020018581526020018481526020018381526020018281526020019e50505050505050505050505050505060405180910390f35b34801561089257600080fd5b50d3801561089f57600080fd5b50d280156108ac57600080fd5b506108b5612b90565b6040518083600560200280838360005b838110156108e05780820151818401526020810190506108c5565b5050505090500182600560200280838360005b8381101561090e5780820151818401526020810190506108f3565b505050509050019250505060405180910390f35b34801561092e57600080fd5b50d3801561093b57600080fd5b50d2801561094857600080fd5b50610951612d63565b604051808260ff1660ff16815260200191505060405180910390f35b34801561097957600080fd5b50d3801561098657600080fd5b50d2801561099357600080fd5b506109c0600480360360208110156109aa57600080fd5b8101908080359060200190929190505050612d76565b6040518082815260200191505060405180910390f35b3480156109e257600080fd5b50d380156109ef57600080fd5b50d280156109fc57600080fd5b50610a2960048036036020811015610a1357600080fd5b8101908080359060200190929190505050612d99565b604051808260ff1660ff16815260200191505060405180910390f35b348015610a5157600080fd5b50d38015610a5e57600080fd5b50d28015610a6b57600080fd5b50610a9b60048036036020811015610a8257600080fd5b81019080803560ff169060200190929190505050612dcc565b604051808273ffffffffffffffffffffffffffffffffffffffff1673ffffffffffffffffffffffffffffffffffffffff16815260200191505060405180910390f35b348015610ae957600080fd5b50d38015610af657600080fd5b50d28015610b0357600080fd5b50610b0c612dff565b604051808273ffffffffffffffffffffffffffffffffffffffff1673ffffffffffffffffffffffffffffffffffffffff16815260200191505060405180910390f35b348015610b5a57600080fd5b50d38015610b6757600080fd5b50d28015610b7457600080fd5b50610b7d612e25565b6040518082815260200191505060405180910390f35b348015610b9f57600080fd5b50d38015610bac57600080fd5b50d28015610bb957600080fd5b50610bc2612e2b565b6040518082815260200191505060405180910390f35b610c1a60048036036020811015610bee57600080fd5b81019080803573ffffffffffffffffffffffffffffffffffffffff169060200190929190505050612e31565b005b348015610c2857600080fd5b50d38015610c3557600080fd5b50d28015610c4257600080fd5b50610c4b612e48565b604051808273ffffffffffffffffffffffffffffffffffffffff1673ffffffffffffffffffffffffffffffffffffffff16815260200191505060405180910390f35b600073ffffffffffffffffffffffffffffffffffffffff16600360008473ffffffffffffffffffffffffffffffffffffffff1673ffffffffffffffffffffffffffffffffffffffff16815260200190815260200160002060010160009054906101000a900473ffffffffffffffffffffffffffffffffffffffff1673ffffffffffffffffffffffffffffffffffffffff16141580610d7757506000809054906101000a900473ffffffffffffffffffffffffffffffffffffffff1673ffffffffffffffffffffffffffffffffffffffff168273ffffffffffffffffffffffffffffffffffffffff16145b1515610deb576040517f08c379a00000000000000000000000000000000000000000000000000000000081526004018080602001828103825260098152602001807f4e6f2075706c696e65000000000000000000000000000000000000000000000081525060200191505060405180910390fd5b6000600360008473ffffffffffffffffffffffffffffffffffffffff1673ffffffffffffffffffffffffffffffffffffffff16815260200190815260200160002060090160009054906101000a900464ffffffffff1664ffffffffff1611156111c957600360008373ffffffffffffffffffffffffffffffffffffffff1673ffffffffffffffffffffffffffffffffffffffff168152602001908152602001600020600001600081548092919060010191905055503073ffffffffffffffffffffffffffffffffffffffff16638959af3c600360008573ffffffffffffffffffffffffffffffffffffffff1673ffffffffffffffffffffffffffffffffffffffff168152602001908152602001600020600701546040518263ffffffff167c01000000000000000000000000000000000000000000000000000000000281526004018082815260200191505060206040518083038186803b158015610f4f57600080fd5b505afa158015610f63573d6000803e3d6000fd5b505050506040513d6020811015610f7957600080fd5b8101908080519060200190929190505050600360008473ffffffffffffffffffffffffffffffffffffffff1673ffffffffffffffffffffffffffffffffffffffff1681526020019081526020016000206003015410151515611043576040517f08c379a00000000000000000000000000000000000000000000000000000000081526004018080602001828103825260168152602001807f4465706f73697420616c7265616479206578697374730000000000000000000081525060200191505060405180910390fd5b600360008373ffffffffffffffffffffffffffffffffffffffff1673ffffffffffffffffffffffffffffffffffffffff16815260200190815260200160002060070154811015801561115057506004600160048054905003600360008573ffffffffffffffffffffffffffffffffffffffff1673ffffffffffffffffffffffffffffffffffffffff168152602001908152602001600020600001541161112b57600360008473ffffffffffffffffffffffffffffffffffffffff1673ffffffffffffffffffffffffffffffffffffffff16815260200190815260200160002060000154611135565b6001600480549050035b81548110151561114157fe5b90600052602060002001548111155b15156111c4576040517f08c379a000000000000000000000000000000000000000000000000000000000815260040180806020018281038252600a8152602001807f42616420616d6f756e740000000000000000000000000000000000000000000081525060200191505060405180910390fd5b61126b565b6298968081101580156111f65750600460008154811015156111e757fe5b90600052602060002001548111155b151561126a576040517f08c379a000000000000000000000000000000000000000000000000000000000815260040180806020018281038252600a8152602001807f42616420616d6f756e740000000000000000000000000000000000000000000081525060200191505060405180910390fd5b5b6000600360008473ffffffffffffffffffffffffffffffffffffffff1673ffffffffffffffffffffffffffffffffffffffff1681526020019081526020016000206003018190555080600360008473ffffffffffffffffffffffffffffffffffffffff1673ffffffffffffffffffffffffffffffffffffffff168152602001908152602001600020600701819055506000600360008473ffffffffffffffffffffffffffffffffffffffff1673ffffffffffffffffffffffffffffffffffffffff1681526020019081526020016000206008018190555042600360008473ffffffffffffffffffffffffffffffffffffffff1673ffffffffffffffffffffffffffffffffffffffff16815260200190815260200160002060090160006101000a81548164ffffffffff021916908364ffffffffff16021790555080600360008473ffffffffffffffffffffffffffffffffffffffff1673ffffffffffffffffffffffffffffffffffffffff168152602001908152602001600020600a016000828254019250508190555080600e600082825401925050819055508173ffffffffffffffffffffffffffffffffffffffff167f2cb77763bc1e8490c1a904905c4d74b4269919aca114464f4bb4d911e60de364826040518082815260200191505060405180910390a2600073ffffffffffffffffffffffffffffffffffffffff16600360008473ffffffffffffffffffffffffffffffffffffffff1673ffffffffffffffffffffffffffffffffffffffff16815260200190815260200160002060010160009054906101000a900473ffffffffffffffffffffffffffffffffffffffff1673ffffffffffffffffffffffffffffffffffffffff1614151561167d57600a818115156114f757fe5b0460036000600360008673ffffffffffffffffffffffffffffffffffffffff1673ffffffffffffffffffffffffffffffffffffffff16815260200190815260200160002060010160009054906101000a900473ffffffffffffffffffffffffffffffffffffffff1673ffffffffffffffffffffffffffffffffffffffff1673ffffffffffffffffffffffffffffffffffffffff168152602001908152602001600020600401600082825401925050819055508173ffffffffffffffffffffffffffffffffffffffff16600360008473ffffffffffffffffffffffffffffffffffffffff1673ffffffffffffffffffffffffffffffffffffffff16815260200190815260200160002060010160009054906101000a900473ffffffffffffffffffffffffffffffffffffffff1673ffffffffffffffffffffffffffffffffffffffff167fba5b08f0cddc64825b52c35c09323af810c1d2e29c97aba01a4ed25cfdc482d1600a8481151561166657fe5b046040518082815260200191505060405180910390a35b6116878282612e6e565b4262015180600860009054906101000a900464ffffffffff160164ffffffffff1610156116b7576116b6613449565b5b600260009054906101000a900473ffffffffffffffffffffffffffffffffffffffff1673ffffffffffffffffffffffffffffffffffffffff166108fc6032838115156116ff57fe5b049081150290604051600060405180830381858888f1935050505015801561172b573d6000803e3d6000fd5b50600160009054906101000a900473ffffffffffffffffffffffffffffffffffffffff1673ffffffffffffffffffffffffffffffffffffffff166108fc60646003840281151561177757fe5b049081150290604051600060405180830381858888f193505050501580156117a3573d6000803e3d6000fd5b505050565b600080600080600080600d54600e54600f54600860009054906101000a900464ffffffffff16600a54600b600060095481526020019081526020016000206000600c60008060ff16815260200190815260200160002060009054906101000a900473ffffffffffffffffffffffffffffffffffffffff1673ffffffffffffffffffffffffffffffffffffffff1673ffffffffffffffffffffffffffffffffffffffff16815260200190815260200160002054955095509550955095509550909192939495565b600a5481565b6000806000806000806000600360008973ffffffffffffffffffffffffffffffffffffffff1673ffffffffffffffffffffffffffffffffffffffff16815260200190815260200160002060010160009054906101000a900473ffffffffffffffffffffffffffffffffffffffff16600360008a73ffffffffffffffffffffffffffffffffffffffff1673ffffffffffffffffffffffffffffffffffffffff16815260200190815260200160002060090160009054906101000a900464ffffffffff16600360008b73ffffffffffffffffffffffffffffffffffffffff1673ffffffffffffffffffffffffffffffffffffffff16815260200190815260200160002060070154600360008c73ffffffffffffffffffffffffffffffffffffffff1673ffffffffffffffffffffffffffffffffffffffff16815260200190815260200160002060030154600360008d73ffffffffffffffffffffffffffffffffffffffff1673ffffffffffffffffffffffffffffffffffffffff16815260200190815260200160002060040154600360008e73ffffffffffffffffffffffffffffffffffffffff1673ffffffffffffffffffffffffffffffffffffffff16815260200190815260200160002060050154600360008f73ffffffffffffffffffffffffffffffffffffffff1673ffffffffffffffffffffffffffffffffffffffff168152602001908152602001600020600601549650965096509650965096509650919395979092949650565b600660019054906101000a900460ff1681565b6000803073ffffffffffffffffffffffffffffffffffffffff16636da61d1e336040518263ffffffff167c0100000000000000000000000000000000000000000000000000000000028152600401808273ffffffffffffffffffffffffffffffffffffffff1673ffffffffffffffffffffffffffffffffffffffff168152602001915050604080518083038186803b158015611b4c57600080fd5b505afa158015611b60573d6000803e3d6000fd5b505050506040513d6040811015611b7657600080fd5b8101908080519060200190929190805190602001909291905050509150915080600360003373ffffffffffffffffffffffffffffffffffffffff1673ffffffffffffffffffffffffffffffffffffffff16815260200190815260200160002060030154101515611c4e576040517f08c379a000000000000000000000000000000000000000000000000000000000815260040180806020018281038252600c8152602001807f46756c6c207061796f757473000000000000000000000000000000000000000081525060200191505060405180910390fd5b6000821115611d96578082600360003373ffffffffffffffffffffffffffffffffffffffff1673ffffffffffffffffffffffffffffffffffffffff16815260200190815260200160002060030154011115611ceb57600360003373ffffffffffffffffffffffffffffffffffffffff1673ffffffffffffffffffffffffffffffffffffffff16815260200190815260200160002060030154810391505b81600360003373ffffffffffffffffffffffffffffffffffffffff1673ffffffffffffffffffffffffffffffffffffffff1681526020019081526020016000206008016000828254019250508190555081600360003373ffffffffffffffffffffffffffffffffffffffff1673ffffffffffffffffffffffffffffffffffffffff16815260200190815260200160002060030160008282540192505081905550611d95338361370f565b5b80600360003373ffffffffffffffffffffffffffffffffffffffff1673ffffffffffffffffffffffffffffffffffffffff16815260200190815260200160002060030154108015611e2957506000600360003373ffffffffffffffffffffffffffffffffffffffff1673ffffffffffffffffffffffffffffffffffffffff16815260200190815260200160002060040154115b15611fb0576000600360003373ffffffffffffffffffffffffffffffffffffffff1673ffffffffffffffffffffffffffffffffffffffff1681526020019081526020016000206004015490508181600360003373ffffffffffffffffffffffffffffffffffffffff1673ffffffffffffffffffffffffffffffffffffffff16815260200190815260200160002060030154011115611f0957600360003373ffffffffffffffffffffffffffffffffffffffff1673ffffffffffffffffffffffffffffffffffffffff16815260200190815260200160002060030154820390505b80600360003373ffffffffffffffffffffffffffffffffffffffff1673ffffffffffffffffffffffffffffffffffffffff1681526020019081526020016000206004016000828254039250508190555080600360003373ffffffffffffffffffffffffffffffffffffffff1673ffffffffffffffffffffffffffffffffffffffff168152602001908152602001600020600301600082825401925050819055508083019250505b80600360003373ffffffffffffffffffffffffffffffffffffffff1673ffffffffffffffffffffffffffffffffffffffff1681526020019081526020016000206003015410801561204357506000600360003373ffffffffffffffffffffffffffffffffffffffff1673ffffffffffffffffffffffffffffffffffffffff16815260200190815260200160002060050154115b156121ca576000600360003373ffffffffffffffffffffffffffffffffffffffff1673ffffffffffffffffffffffffffffffffffffffff1681526020019081526020016000206005015490508181600360003373ffffffffffffffffffffffffffffffffffffffff1673ffffffffffffffffffffffffffffffffffffffff1681526020019081526020016000206003015401111561212357600360003373ffffffffffffffffffffffffffffffffffffffff1673ffffffffffffffffffffffffffffffffffffffff16815260200190815260200160002060030154820390505b80600360003373ffffffffffffffffffffffffffffffffffffffff1673ffffffffffffffffffffffffffffffffffffffff1681526020019081526020016000206005016000828254039250508190555080600360003373ffffffffffffffffffffffffffffffffffffffff1673ffffffffffffffffffffffffffffffffffffffff168152602001908152602001600020600301600082825401925050819055508083019250505b80600360003373ffffffffffffffffffffffffffffffffffffffff1673ffffffffffffffffffffffffffffffffffffffff1681526020019081526020016000206003015410801561225d57506000600360003373ffffffffffffffffffffffffffffffffffffffff1673ffffffffffffffffffffffffffffffffffffffff16815260200190815260200160002060060154115b156123e4576000600360003373ffffffffffffffffffffffffffffffffffffffff1673ffffffffffffffffffffffffffffffffffffffff1681526020019081526020016000206006015490508181600360003373ffffffffffffffffffffffffffffffffffffffff1673ffffffffffffffffffffffffffffffffffffffff1681526020019081526020016000206003015401111561233d57600360003373ffffffffffffffffffffffffffffffffffffffff1673ffffffffffffffffffffffffffffffffffffffff16815260200190815260200160002060030154820390505b80600360003373ffffffffffffffffffffffffffffffffffffffff1673ffffffffffffffffffffffffffffffffffffffff1681526020019081526020016000206006016000828254039250508190555080600360003373ffffffffffffffffffffffffffffffffffffffff1673ffffffffffffffffffffffffffffffffffffffff168152602001908152602001600020600301600082825401925050819055508083019250505b60008211151561245c576040517f08c379a000000000000000000000000000000000000000000000000000000000815260040180806020018281038252600b8152602001807f5a65726f207061796f757400000000000000000000000000000000000000000081525060200191505060405180910390fd5b81600360003373ffffffffffffffffffffffffffffffffffffffff1673ffffffffffffffffffffffffffffffffffffffff168152602001908152602001600020600b016000828254019250508190555081600f600082825401925050819055503373ffffffffffffffffffffffffffffffffffffffff166108fc839081150290604051600060405180830381858888f19350505050158015612502573d6000803e3d6000fd5b503373ffffffffffffffffffffffffffffffffffffffff167f884edad9ce6fa2440d8a54cc123490eb96d2768479d49ff9c7366125a9424364836040518082815260200191505060405180910390a280600360003373ffffffffffffffffffffffffffffffffffffffff1673ffffffffffffffffffffffffffffffffffffffff1681526020019081526020016000206003015410151561262d573373ffffffffffffffffffffffffffffffffffffffff167f97ddeb77c85e6a1dd99a34fe2bb1a4f9b211d5ffced7a707de9dbeb24363d0e4600360003373ffffffffffffffffffffffffffffffffffffffff1673ffffffffffffffffffffffffffffffffffffffff168152602001908152602001600020600301546040518082815260200191505060405180910390a25b5050565b60078181548110151561264057fe5b9060005260206000209060209182820401919006915054906101000a900460ff1681565b6000803073ffffffffffffffffffffffffffffffffffffffff16638959af3c600360008673ffffffffffffffffffffffffffffffffffffffff1673ffffffffffffffffffffffffffffffffffffffff168152602001908152602001600020600701546040518263ffffffff167c01000000000000000000000000000000000000000000000000000000000281526004018082815260200191505060206040518083038186803b15801561271657600080fd5b505afa15801561272a573d6000803e3d6000fd5b505050506040513d602081101561274057600080fd5b8101908080519060200190929190505050905080600360008573ffffffffffffffffffffffffffffffffffffffff1673ffffffffffffffffffffffffffffffffffffffff16815260200190815260200160002060080154101561294757600360008473ffffffffffffffffffffffffffffffffffffffff1673ffffffffffffffffffffffffffffffffffffffff16815260200190815260200160002060080154606462015180600360008773ffffffffffffffffffffffffffffffffffffffff1673ffffffffffffffffffffffffffffffffffffffff16815260200190815260200160002060090160009054906101000a900464ffffffffff1664ffffffffff16420381151561284c57fe5b04600660009054906101000a900460ff1660ff16600360008873ffffffffffffffffffffffffffffffffffffffff1673ffffffffffffffffffffffffffffffffffffffff1681526020019081526020016000206007015402028115156128ae57fe5b040391508082600360008673ffffffffffffffffffffffffffffffffffffffff1673ffffffffffffffffffffffffffffffffffffffff1681526020019081526020016000206008015401111561294657600360008473ffffffffffffffffffffffffffffffffffffffff1673ffffffffffffffffffffffffffffffffffffffff16815260200190815260200160002060080154810391505b5b915091565b600b602052816000526040600020602052806000526040600020600091509150505481565b600080600080600360008673ffffffffffffffffffffffffffffffffffffffff1673ffffffffffffffffffffffffffffffffffffffff16815260200190815260200160002060020154600360008773ffffffffffffffffffffffffffffffffffffffff1673ffffffffffffffffffffffffffffffffffffffff168152602001908152602001600020600a0154600360008873ffffffffffffffffffffffffffffffffffffffff1673ffffffffffffffffffffffffffffffffffffffff168152602001908152602001600020600b0154600360008973ffffffffffffffffffffffffffffffffffffffff1673ffffffffffffffffffffffffffffffffffffffff168152602001908152602001600020600c015493509350935093509193509193565b6000600a600b8302811515612aa357fe5b049050919050565b6000809054906101000a900473ffffffffffffffffffffffffffffffffffffffff1681565b60095481565b600f5481565b600860009054906101000a900464ffffffffff1681565b60036020528060005260406000206000915090508060000154908060010160009054906101000a900473ffffffffffffffffffffffffffffffffffffffff16908060020154908060030154908060040154908060050154908060060154908060070154908060080154908060090160009054906101000a900464ffffffffff169080600a01549080600b01549080600c01549080600d015490508e565b612b98613e1b565b612ba0613e3e565b60008090505b6007805490508160ff161015612d5e57600073ffffffffffffffffffffffffffffffffffffffff16600c60008360ff1660ff16815260200190815260200160002060009054906101000a900473ffffffffffffffffffffffffffffffffffffffff1673ffffffffffffffffffffffffffffffffffffffff161415612c2957612d5e565b600c60008260ff1660ff16815260200190815260200160002060009054906101000a900473ffffffffffffffffffffffffffffffffffffffff16838260ff16600581101515612c7457fe5b602002019073ffffffffffffffffffffffffffffffffffffffff16908173ffffffffffffffffffffffffffffffffffffffff1681525050600b600060095481526020019081526020016000206000600c60008460ff1660ff16815260200190815260200160002060009054906101000a900473ffffffffffffffffffffffffffffffffffffffff1673ffffffffffffffffffffffffffffffffffffffff1673ffffffffffffffffffffffffffffffffffffffff16815260200190815260200160002054828260ff16600581101515612d4857fe5b6020020181815250508080600101915050612ba6565b509091565b600660009054906101000a900460ff1681565b600481815481101515612d8557fe5b906000526020600020016000915090505481565b600581815481101515612da857fe5b9060005260206000209060209182820401919006915054906101000a900460ff1681565b600c6020528060005260406000206000915054906101000a900473ffffffffffffffffffffffffffffffffffffffff1681565b600160009054906101000a900473ffffffffffffffffffffffffffffffffffffffff1681565b600e5481565b600d5481565b612e3b338261398d565b612e453334610c8d565b50565b600260009054906101000a900473ffffffffffffffffffffffffffffffffffffffff1681565b606460038202811515612e7d57fe5b04600a600082825401925050819055506000600360008473ffffffffffffffffffffffffffffffffffffffff1673ffffffffffffffffffffffffffffffffffffffff16815260200190815260200160002060010160009054906101000a900473ffffffffffffffffffffffffffffffffffffffff169050600073ffffffffffffffffffffffffffffffffffffffff168173ffffffffffffffffffffffffffffffffffffffff161415612f2f5750613445565b81600b6000600954815260200190815260200160002060008373ffffffffffffffffffffffffffffffffffffffff1673ffffffffffffffffffffffffffffffffffffffff1681526020019081526020016000206000828254019250508190555060008090505b6007805490508160ff161015613442578173ffffffffffffffffffffffffffffffffffffffff16600c60008360ff1660ff16815260200190815260200160002060009054906101000a900473ffffffffffffffffffffffffffffffffffffffff1673ffffffffffffffffffffffffffffffffffffffff16141561301757613442565b600073ffffffffffffffffffffffffffffffffffffffff16600c60008360ff1660ff16815260200190815260200160002060009054906101000a900473ffffffffffffffffffffffffffffffffffffffff1673ffffffffffffffffffffffffffffffffffffffff1614156130e25781600c60008360ff1660ff16815260200190815260200160002060006101000a81548173ffffffffffffffffffffffffffffffffffffffff021916908373ffffffffffffffffffffffffffffffffffffffff160217905550613442565b600b600060095481526020019081526020016000206000600c60008460ff1660ff16815260200190815260200160002060009054906101000a900473ffffffffffffffffffffffffffffffffffffffff1673ffffffffffffffffffffffffffffffffffffffff1673ffffffffffffffffffffffffffffffffffffffff16815260200190815260200160002054600b6000600954815260200190815260200160002060008473ffffffffffffffffffffffffffffffffffffffff1673ffffffffffffffffffffffffffffffffffffffff1681526020019081526020016000205411156134355760006001820190505b6007805490508160ff161015613318578273ffffffffffffffffffffffffffffffffffffffff16600c60008360ff1660ff16815260200190815260200160002060009054906101000a900473ffffffffffffffffffffffffffffffffffffffff1673ffffffffffffffffffffffffffffffffffffffff16141561330b5760008190505b6007805490508160ff1611151561330557600c60006001830160ff1660ff16815260200190815260200160002060009054906101000a900473ffffffffffffffffffffffffffffffffffffffff16600c60008360ff1660ff16815260200190815260200160002060006101000a81548173ffffffffffffffffffffffffffffffffffffffff021916908373ffffffffffffffffffffffffffffffffffffffff1602179055508080600101915050613253565b50613318565b80806001019150506131d0565b50600060016007805490500390505b8160ff168160ff1611156133d757600c60006001830360ff1660ff16815260200190815260200160002060009054906101000a900473ffffffffffffffffffffffffffffffffffffffff16600c60008360ff1660ff16815260200190815260200160002060006101000a81548173ffffffffffffffffffffffffffffffffffffffff021916908373ffffffffffffffffffffffffffffffffffffffff160217905550808060019003915050613327565b5081600c60008360ff1660ff16815260200190815260200160002060006101000a81548173ffffffffffffffffffffffffffffffffffffffff021916908373ffffffffffffffffffffffffffffffffffffffff160217905550613442565b8080600101915050612f95565b50505b5050565b42600860006101000a81548164ffffffffff021916908364ffffffffff1602179055506009600081548092919060010191905055506000600a805481151561348d57fe5b04905060008090505b6007805490508160ff16101561368e57600073ffffffffffffffffffffffffffffffffffffffff16600c60008360ff1660ff16815260200190815260200160002060009054906101000a900473ffffffffffffffffffffffffffffffffffffffff1673ffffffffffffffffffffffffffffffffffffffff1614156135195761368e565b6000606460078360ff1681548110151561352f57fe5b90600052602060002090602091828204019190069054906101000a900460ff1660ff16840281151561355d57fe5b0490508060036000600c60008660ff1660ff16815260200190815260200160002060009054906101000a900473ffffffffffffffffffffffffffffffffffffffff1673ffffffffffffffffffffffffffffffffffffffff1673ffffffffffffffffffffffffffffffffffffffff1681526020019081526020016000206005016000828254019250508190555080600a60008282540392505081905550600c60008360ff1660ff16815260200190815260200160002060009054906101000a900473ffffffffffffffffffffffffffffffffffffffff1673ffffffffffffffffffffffffffffffffffffffff167fdbdfa5cb8586917247fbe7178cf53555d199e091a14b06f7de5a182ece2d453a826040518082815260200191505060405180910390a2508080600101915050613496565b5060008090505b6007805490508160ff16101561370b576000600c60008360ff1660ff16815260200190815260200160002060006101000a81548173ffffffffffffffffffffffffffffffffffffffff021916908373ffffffffffffffffffffffffffffffffffffffff1602179055508080600101915050613695565b5050565b6000600360008473ffffffffffffffffffffffffffffffffffffffff1673ffffffffffffffffffffffffffffffffffffffff16815260200190815260200160002060010160009054906101000a900473ffffffffffffffffffffffffffffffffffffffff16905060008090505b6005805490508160ff16101561398757600073ffffffffffffffffffffffffffffffffffffffff168273ffffffffffffffffffffffffffffffffffffffff1614156137c657613987565b6001810160ff16600360008473ffffffffffffffffffffffffffffffffffffffff1673ffffffffffffffffffffffffffffffffffffffff16815260200190815260200160002060020154101515613915576000606460058360ff1681548110151561382d57fe5b90600052602060002090602091828204019190069054906101000a900460ff1660ff16850281151561385b57fe5b04905080600360008573ffffffffffffffffffffffffffffffffffffffff1673ffffffffffffffffffffffffffffffffffffffff168152602001908152602001600020600601600082825401925050819055508473ffffffffffffffffffffffffffffffffffffffff168373ffffffffffffffffffffffffffffffffffffffff167f16e746f9be6c4b545700b04df27afb9fceabf59b94ef1c816e78a435059fabea836040518082815260200191505060405180910390a3505b600360008373ffffffffffffffffffffffffffffffffffffffff1673ffffffffffffffffffffffffffffffffffffffff16815260200190815260200160002060010160009054906101000a900473ffffffffffffffffffffffffffffffffffffffff169150808060010191505061377c565b50505050565b600073ffffffffffffffffffffffffffffffffffffffff16600360008473ffffffffffffffffffffffffffffffffffffffff1673ffffffffffffffffffffffffffffffffffffffff16815260200190815260200160002060010160009054906101000a900473ffffffffffffffffffffffffffffffffffffffff1673ffffffffffffffffffffffffffffffffffffffff16148015613a5757508173ffffffffffffffffffffffffffffffffffffffff168173ffffffffffffffffffffffffffffffffffffffff1614155b8015613ab057506000809054906101000a900473ffffffffffffffffffffffffffffffffffffffff1673ffffffffffffffffffffffffffffffffffffffff168273ffffffffffffffffffffffffffffffffffffffff1614155b8015613b6d57506000600360008373ffffffffffffffffffffffffffffffffffffffff1673ffffffffffffffffffffffffffffffffffffffff16815260200190815260200160002060090160009054906101000a900464ffffffffff1664ffffffffff161180613b6c57506000809054906101000a900473ffffffffffffffffffffffffffffffffffffffff1673ffffffffffffffffffffffffffffffffffffffff168173ffffffffffffffffffffffffffffffffffffffff16145b5b15613e175780600360008473ffffffffffffffffffffffffffffffffffffffff1673ffffffffffffffffffffffffffffffffffffffff16815260200190815260200160002060010160006101000a81548173ffffffffffffffffffffffffffffffffffffffff021916908373ffffffffffffffffffffffffffffffffffffffff160217905550600360008273ffffffffffffffffffffffffffffffffffffffff1673ffffffffffffffffffffffffffffffffffffffff168152602001908152602001600020600201600081548092919060010191905055508073ffffffffffffffffffffffffffffffffffffffff168273ffffffffffffffffffffffffffffffffffffffff167f9f4d150e5193cfa9a87226111d3b60b624d97ccc056eeeac1569af1ea27bf64160405160405180910390a3600d6000815480929190600101919050555060008090505b6005805490508160ff161015613e1557600073ffffffffffffffffffffffffffffffffffffffff168273ffffffffffffffffffffffffffffffffffffffff161415613d0157613e15565b600360008373ffffffffffffffffffffffffffffffffffffffff1673ffffffffffffffffffffffffffffffffffffffff168152602001908152602001600020600c016000815480929190600101919050555034600360008473ffffffffffffffffffffffffffffffffffffffff1673ffffffffffffffffffffffffffffffffffffffff168152602001908152602001600020600d0160008282540192505081905550600360008373ffffffffffffffffffffffffffffffffffffffff1673ffffffffffffffffffffffffffffffffffffffff16815260200190815260200160002060010160009054906101000a900473ffffffffffffffffffffffffffffffffffffffff1691508080600101915050613cb7565b505b5050565b60a060405190810160405280600590602082028038833980820191505090505090565b60a06040519081016040528060059060208202803883398082019150509050509056fea165627a7a72305820c8be84879cccf9878301a1eef50c811d4b05907d2caaf508de1c79554bc267f00029",
  "source": "pragma solidity ^0.5.4;\r\n\r\ncontract TrxChain {\r\n    struct User {\r\n        uint256 cycle;\r\n        address upline;\r\n        uint256 referrals;\r\n        uint256 payouts;\r\n        uint256 direct_bonus;\r\n        uint256 pool_bonus;\r\n        uint256 match_bonus;\r\n        uint256 deposit_amount;\r\n        uint256 deposit_payouts;\r\n        uint40 deposit_time;\r\n        uint256 total_deposits;\r\n        uint256 total_payouts;\r\n        uint256 total_structure;\r\n        uint256 total_team_business;\r\n    }\r\n\r\n    address payable public owner;\r\n    address payable public etherchain_fund;\r\n    address payable public admin_fee;\r\n\r\n    mapping(address => User) public users;\r\n\r\n    uint256[] public cycles;\r\n    uint8[] public ref_bonuses;                     // 1 => 1%\r\n    uint8 public daily_returns = 133;\r\n    uint8 public divisor = 100;\r\n\r\n    uint8[] public pool_bonuses;                    // 1 => 1%\r\n    uint40 public pool_last_draw = uint40(block.timestamp);\r\n    uint256 public pool_cycle;\r\n    uint256 public pool_balance;\r\n    mapping(uint256 => mapping(address => uint256)) public pool_users_refs_deposits_sum;\r\n    mapping(uint8 => address) public pool_top;\r\n\r\n    uint256 public total_users = 1;\r\n    uint256 public total_deposited;\r\n    uint256 public total_withdraw;\r\n    \r\n    event Upline(address indexed addr, address indexed upline);\r\n    event NewDeposit(address indexed addr, uint256 amount);\r\n    event DirectPayout(address indexed addr, address indexed from, uint256 amount);\r\n    event MatchPayout(address indexed addr, address indexed from, uint256 amount);\r\n    event PoolPayout(address indexed addr, uint256 amount);\r\n    event Withdraw(address indexed addr, uint256 amount);\r\n    event LimitReached(address indexed addr, uint256 amount);\r\n\r\n    constructor(address payable _owner) public {\r\n        owner = _owner;\r\n        \r\n        etherchain_fund = 0xDaE41A6dE97E6446954D0f6053Ed2008776D6A1b;\r\n        admin_fee = 0x31aa4BedE2ebD80346acD8a01B99B809438EAa5B;\r\n        \r\n        ref_bonuses.push(40);\r\n        ref_bonuses.push(20);\r\n        ref_bonuses.push(10);\r\n        ref_bonuses.push(10);\r\n        ref_bonuses.push(10); // 90\r\n        ref_bonuses.push(8);\r\n        ref_bonuses.push(8);\r\n        ref_bonuses.push(8);\r\n        ref_bonuses.push(8);\r\n        ref_bonuses.push(8); // 130\r\n        ref_bonuses.push(5);\r\n        ref_bonuses.push(5);\r\n        ref_bonuses.push(5);\r\n        ref_bonuses.push(5);\r\n        ref_bonuses.push(5); // 155\r\n\r\n        pool_bonuses.push(40);\r\n        pool_bonuses.push(20);\r\n        pool_bonuses.push(15);\r\n        pool_bonuses.push(15);\r\n        pool_bonuses.push(10);\r\n\r\n        cycles.push(1e11);\r\n        cycles.push(3e11);\r\n        cycles.push(9e11);\r\n        cycles.push(2e12);\r\n    }\r\n\r\n    function() payable external {\r\n        _deposit(msg.sender, msg.value);\r\n    }\r\n\r\n    function _setUpline(address _addr, address _upline) private {\r\n        if(users[_addr].upline == address(0) && _upline != _addr && _addr != owner && (users[_upline].deposit_time > 0 || _upline == owner)) {\r\n            users[_addr].upline = _upline;\r\n            users[_upline].referrals++;\r\n\r\n            emit Upline(_addr, _upline);\r\n\r\n            total_users++;\r\n\r\n            for(uint8 i = 0; i < ref_bonuses.length; i++) {\r\n                if(_upline == address(0)) break;\r\n\r\n                users[_upline].total_structure++;\r\n                users[_upline].total_team_business += msg.value;\r\n\r\n                _upline = users[_upline].upline;\r\n            }\r\n        }\r\n    }\r\n\r\n    function _deposit(address _addr, uint256 _amount) private {\r\n        require(users[_addr].upline != address(0) || _addr == owner, \"No upline\");\r\n\r\n        if(users[_addr].deposit_time > 0) {\r\n            users[_addr].cycle++;\r\n            \r\n            require(users[_addr].payouts >= this.maxPayoutOf(users[_addr].deposit_amount), \"Deposit already exists\");\r\n            require(_amount >= users[_addr].deposit_amount && _amount <= cycles[users[_addr].cycle > cycles.length - 1 ? cycles.length - 1 : users[_addr].cycle], \"Bad amount\");\r\n        }\r\n        else require(_amount >= 1e7 && _amount <= cycles[0], \"Bad amount\");\r\n        \r\n        users[_addr].payouts = 0;\r\n        users[_addr].deposit_amount = _amount;\r\n        users[_addr].deposit_payouts = 0;\r\n        users[_addr].deposit_time = uint40(block.timestamp);\r\n        users[_addr].total_deposits += _amount;\r\n\r\n        total_deposited += _amount;\r\n        \r\n        emit NewDeposit(_addr, _amount);\r\n\r\n        if(users[_addr].upline != address(0)) {\r\n            users[users[_addr].upline].direct_bonus += _amount / 10;\r\n\r\n            emit DirectPayout(users[_addr].upline, _addr, _amount / 10);\r\n        }\r\n\r\n        _pollDeposits(_addr, _amount);\r\n\r\n        if(pool_last_draw + 1 days < block.timestamp) {\r\n            _drawPool();\r\n        }\r\n\r\n        admin_fee.transfer(_amount / 50);\r\n        etherchain_fund.transfer(_amount * 3 / 100);\r\n        \r\n    }\r\n\r\n    function _pollDeposits(address _addr, uint256 _amount) private {\r\n        pool_balance += _amount * 3 / 100;\r\n\r\n        address upline = users[_addr].upline;\r\n\r\n        if(upline == address(0)) return;\r\n        \r\n        pool_users_refs_deposits_sum[pool_cycle][upline] += _amount;\r\n\r\n        for(uint8 i = 0; i < pool_bonuses.length; i++) {\r\n            if(pool_top[i] == upline) break;\r\n\r\n            if(pool_top[i] == address(0)) {\r\n                pool_top[i] = upline;\r\n                break;\r\n            }\r\n\r\n            if(pool_users_refs_deposits_sum[pool_cycle][upline] > pool_users_refs_deposits_sum[pool_cycle][pool_top[i]]) {\r\n                for(uint8 j = i + 1; j < pool_bonuses.length; j++) {\r\n                    if(pool_top[j] == upline) {\r\n                        for(uint8 k = j; k <= pool_bonuses.length; k++) {\r\n                            pool_top[k] = pool_top[k + 1];\r\n                        }\r\n                        break;\r\n                    }\r\n                }\r\n\r\n                for(uint8 j = uint8(pool_bonuses.length - 1); j > i; j--) {\r\n                    pool_top[j] = pool_top[j - 1];\r\n                }\r\n\r\n                pool_top[i] = upline;\r\n\r\n                break;\r\n            }\r\n        }\r\n    }\r\n\r\n    function _refPayout(address _addr, uint256 _amount) private {\r\n        address up = users[_addr].upline;\r\n\r\n        for(uint8 i = 0; i < ref_bonuses.length; i++) {\r\n            if(up == address(0)) break;\r\n            \r\n            if(users[up].referrals >= i + 1) {\r\n                uint256 bonus = _amount * ref_bonuses[i] / 100;\r\n                \r\n                users[up].match_bonus += bonus;\r\n\r\n                emit MatchPayout(up, _addr, bonus);\r\n            }\r\n\r\n            up = users[up].upline;\r\n        }\r\n    }\r\n\r\n    function _drawPool() private {\r\n        pool_last_draw = uint40(block.timestamp);\r\n        pool_cycle++;\r\n\r\n        uint256 draw_amount = pool_balance / 10;\r\n\r\n        for(uint8 i = 0; i < pool_bonuses.length; i++) {\r\n            if(pool_top[i] == address(0)) break;\r\n\r\n            uint256 win = draw_amount * pool_bonuses[i] / 100;\r\n\r\n            users[pool_top[i]].pool_bonus += win;\r\n            pool_balance -= win;\r\n\r\n            emit PoolPayout(pool_top[i], win);\r\n        }\r\n        \r\n        for(uint8 i = 0; i < pool_bonuses.length; i++) {\r\n            pool_top[i] = address(0);\r\n        }\r\n    }\r\n\r\n    function deposit(address _upline) payable external {\r\n        _setUpline(msg.sender, _upline);\r\n        _deposit(msg.sender, msg.value);\r\n    }\r\n\r\n    function withdraw() external {\r\n        (uint256 to_payout, uint256 max_payout) = this.payoutOf(msg.sender);\r\n        \r\n        require(users[msg.sender].payouts < max_payout, \"Full payouts\");\r\n\r\n        // Deposit payout\r\n        if(to_payout > 0) {\r\n            if(users[msg.sender].payouts + to_payout > max_payout) {\r\n                to_payout = max_payout - users[msg.sender].payouts;\r\n            }\r\n\r\n            users[msg.sender].deposit_payouts += to_payout;\r\n            users[msg.sender].payouts += to_payout;\r\n\r\n            _refPayout(msg.sender, to_payout);\r\n        }\r\n        \r\n        // Direct payout\r\n        if(users[msg.sender].payouts < max_payout && users[msg.sender].direct_bonus > 0) {\r\n            uint256 direct_bonus = users[msg.sender].direct_bonus;\r\n\r\n            if(users[msg.sender].payouts + direct_bonus > max_payout) {\r\n                direct_bonus = max_payout - users[msg.sender].payouts;\r\n            }\r\n\r\n            users[msg.sender].direct_bonus -= direct_bonus;\r\n            users[msg.sender].payouts += direct_bonus;\r\n            to_payout += direct_bonus;\r\n        }\r\n        \r\n        // Pool payout\r\n        if(users[msg.sender].payouts < max_payout && users[msg.sender].pool_bonus > 0) {\r\n            uint256 pool_bonus = users[msg.sender].pool_bonus;\r\n\r\n            if(users[msg.sender].payouts + pool_bonus > max_payout) {\r\n                pool_bonus = max_payout - users[msg.sender].payouts;\r\n            }\r\n\r\n            users[msg.sender].pool_bonus -= pool_bonus;\r\n            users[msg.sender].payouts += pool_bonus;\r\n            to_payout += pool_bonus;\r\n        }\r\n\r\n        // Match payout\r\n        if(users[msg.sender].payouts < max_payout && users[msg.sender].match_bonus > 0) {\r\n            uint256 match_bonus = users[msg.sender].match_bonus;\r\n\r\n            if(users[msg.sender].payouts + match_bonus > max_payout) {\r\n                match_bonus = max_payout - users[msg.sender].payouts;\r\n            }\r\n\r\n            users[msg.sender].match_bonus -= match_bonus;\r\n            users[msg.sender].payouts += match_bonus;\r\n            to_payout += match_bonus;\r\n        }\r\n\r\n        require(to_payout > 0, \"Zero payout\");\r\n        \r\n        users[msg.sender].total_payouts += to_payout;\r\n        total_withdraw += to_payout;\r\n\r\n        msg.sender.transfer(to_payout);\r\n\r\n        emit Withdraw(msg.sender, to_payout);\r\n\r\n        if(users[msg.sender].payouts >= max_payout) {\r\n            emit LimitReached(msg.sender, users[msg.sender].payouts);\r\n        }\r\n    }\r\n    \r\n    function maxPayoutOf(uint256 _amount) pure external returns(uint256) {\r\n        return _amount * 11 / 10;\r\n    }\r\n\r\n    function payoutOf(address _addr) view external returns(uint256 payout, uint256 max_payout) {\r\n        max_payout = this.maxPayoutOf(users[_addr].deposit_amount);\r\n\r\n        if(users[_addr].deposit_payouts < max_payout) {\r\n            payout = (users[_addr].deposit_amount * daily_returns * ((block.timestamp - users[_addr].deposit_time) / 1 days) / 100) - users[_addr].deposit_payouts;\r\n            \r\n            if(users[_addr].deposit_payouts + payout > max_payout) {\r\n                payout = max_payout - users[_addr].deposit_payouts;\r\n            }\r\n        }\r\n    }\r\n\r\n    /*\r\n        Only external call\r\n    */\r\n    function userInfo(address _addr) view external returns(address upline, uint40 deposit_time, uint256 deposit_amount, uint256 payouts, uint256 direct_bonus, uint256 pool_bonus, uint256 match_bonus) {\r\n        return (users[_addr].upline, users[_addr].deposit_time, users[_addr].deposit_amount, users[_addr].payouts, users[_addr].direct_bonus, users[_addr].pool_bonus, users[_addr].match_bonus);\r\n    }\r\n\r\n    function userInfoTotals(address _addr) view external returns(uint256 referrals, uint256 total_deposits, uint256 total_payouts, uint256 total_structure) {\r\n        return (users[_addr].referrals, users[_addr].total_deposits, users[_addr].total_payouts, users[_addr].total_structure);\r\n    }\r\n\r\n    function contractInfo() view external returns(uint256 _total_users, uint256 _total_deposited, uint256 _total_withdraw, uint40 _pool_last_draw, uint256 _pool_balance, uint256 _pool_lider) {\r\n        return (total_users, total_deposited, total_withdraw, pool_last_draw, pool_balance, pool_users_refs_deposits_sum[pool_cycle][pool_top[0]]);\r\n    }\r\n\r\n    function poolTopInfo() view external returns(address[5] memory addrs, uint256[5] memory deps) {\r\n        for(uint8 i = 0; i < pool_bonuses.length; i++) {\r\n            if(pool_top[i] == address(0)) break;\r\n\r\n            addrs[i] = pool_top[i];\r\n            deps[i] = pool_users_refs_deposits_sum[pool_cycle][pool_top[i]];\r\n        }\r\n    }\r\n}",
  "sourcePath": "C:/Users/RAAKESH/Desktop/Coding/TronDapp/TRXCHAIN/contracts/TRXChain.sol",
  "compiler": {
    "name": "solc",
    "version": "0.5.4+commit.d15a3125.mod.Emscripten.clang"
  },
  "schemaVersion": "2.0.1",
  "updatedAt": "2020-09-23T13:53:28.598Z"
}